:020000040800F2
:10000000286800203503000847030008490300085A
:100010004B0300084D0300084F03000800000000D8
:100020000000000000000000000000007D02000849
:100030005303000800000000D1020008BD2B000897
:100040005903000859030008590300085903000820
:100050005903000859030008590300085903000810
:100060005903000859030008590300085903000800
:1000700059030008590300085903000859030008F0
:10008000590300085903000859030008950F000898
:10009000590F0008590300085903000859030008C4
:1000A00059030008590300085903000859030008C0
:1000B00059030008590300085903000859030008B0
:1000C00059030008590300085903000859030008A0
:1000D00059030008D134000891350008590300087D
:1000E0005903000859030008590300085903000880
:1000F0005903000859030008590300085903000870
:10010000590300085903000859030008590300085F
:10011000590300085903000859030008590300084F
:10012000590300085903000859030008590300083F
:10013000590300085903000859030008ED0F00088F
:10014000B10F0008590300085903000859030008BB
:100150005903000859030008590300089D36000898
:1001600059030008590300085903000859030008FF
:100170005903000859030008590300080000000053
:10018000590300085903000895330008413400085A
:1001900059030008590300085903000859030008CF
:1001A00000000000000000005903000800F002F801
:1001B00000F054F80AA090E8000C82448344AAF1AD
:1001C0000107DA4501D100F049F8AFF2090EBAE8AB
:1001D0000F0013F0010F18BFFB1A43F0010318477B
:1001E00088640000A86400000A4410F8014B14F071
:1001F0000F0508BF10F8015B240908BF10F8014B78
:100200006D1E05D010F8013B6D1E01F8013BF9D1C0
:10021000641E03D0641E01F8015BFBD19142E4D35C
:10022000704700000023002400250026103A28BF54
:1002300078C1FBD8520728BF30C148BF0B60704758
:10024000642900F00981732900F03E820020704784
:100250001FB506F003FA1FBD10B510BD00F0A6FAD9
:100260001146FFF7F5FF03F09DFF00F0C4FA03B459
:10027000FFF7F2FF03BC03F0C3FC00002A4B196830
:100280000868B0E8F04F80F30988BFF36F8F4FF034
:10029000000080F3118870470000000006480068E5
:1002A000006880F3088862B661B6BFF34F8FBFF372
:1002B0006F8F00DF00BF00BF08ED00E0DFF80C002B
:1002C000016841F470010160704700BF88ED00E0F3
:1002D000EFF30980BFF36F8F134B1A681EF0100FF6
:1002E00008BF20ED108A20E9F04F106008B44FF0ED
:1002F000100080F31188BFF34F8FBFF36F8F05F0AD
:100300000BFA4FF0000080F3118808BC19680868E8
:10031000B0E8F04F1EF0100F08BFB0EC108A80F369
:100320000988BFF36F8F704784080020EFF30580C2
:10033000704700000C48016841F4700101600B48EF
:1003400080470B480047FEE7FEE7FEE7FEE7FEE7D3
:10035000FEE7FEE7FEE7FEE7FEE700000548064988
:10036000044A064B7047000088ED00E0CD2B0008E2
:10037000AD010008286400202868002028640020BF
:10038000704700000FB4044910B503AA029800F0AA
:100390009FF910BC5DF814FB140000202DE9F0411A
:1003A0000E460446002020622046E168884730B3AC
:1003B000252805D0D4E901219047206A401CF2E7A6
:1003C000E168204600278847050018D0A5F14100C4
:1003D000192802D820354FF40067324629462046B6
:1003E0002760FFF72DFF40B1012804D0F61D26F04D
:1003F00007060836D8E7361DD6E72846DAE7206A2A
:10040000BDE8F08170B50C460546012A05D0287874
:10041000800600D5EA69002302E0012305E05B1CA9
:10042000934202D2E05C0028F9D1A869E618C01A0C
:10043000A861286A184428622846AFF3008004E0C7
:10044000D5E9012114F8010B9047B442F8D32846AE
:10045000AFF3008070BD00002DE9F0410646002496
:1004600010687529314616A510D0AFF3008000281A
:1004700002DA404213A507E031688A0701D512A5C8
:1004800002E0490704D511A5012401E0AFF3008083
:1004900000210A2206F1240709E0B0FBF2FCB0FBC0
:1004A000F2F302FB1C00303078541846491C002837
:1004B000F3D123462A463046BDE8F04100F080B82B
:1004C000000000002D0000002B00000020000000B4
:1004D000032A40F2308010F0030C00F0158011F870
:1004E000013BBCF1020F624498BF11F801CB00F848
:1004F000013B38BF11F8013BA2F1040298BF00F89C
:1005000001CB38BF00F8013B11F0030300F0F2808B
:10051000083AC0F0088051F8043B083A51F804CB7F
:10052000A0E80810F5E7121D5CBF51F8043B40F845
:10053000043BAFF30080D20724BF11F8013B11F850
:1005400001CB48BF11F8012B24BF00F8013B00F894
:1005500001CB48BF00F8012B704702F0FF0343EACC
:10056000032242EA024200F0F9B84FF0000200B55F
:10057000134694469646203922BFA0E80C50A0E8C6
:100580000C50B1F12001BFF4F7AF090728BFA0E874
:100590000C5048BF0CC05DF804EB890028BF40F840
:1005A000042B08BF704748BF20F8022B11F0804F82
:1005B00018BF00F8012B70477047704770477047AD
:1005C0002DE9F0470D4699469246044600F124086D
:1005D0000168880604D5E06921F01001216000E07F
:1005E0000120A84201DD471B00E00027A1697A191C
:1005F00002EB0900081AA0612078C00602D4204648
:10060000AFF30080002608E0D4E901211AF80600C3
:100610009047206A401C761C20624E45F4DB20780F
:10062000C0060AD52046AFF3008006E0D4E90121D8
:1006300030209047206A401C2062381EA7F1010735
:10064000F4DC07E0D4E9012118F805009047206A9E
:10065000401C2062281EA5F10105F3DC2046AFF303
:1006600000802078000602D50220BDE8F087012036
:10067000FBE7000001694A1C02610878704700B579
:100680008FB0CDE901310021059105497944CDE9CB
:10069000031011466846FFF781FE0FB000BD000051
:1006A000E5FFFFFF10B5436913B1AFF3008001E030
:1006B000FFF7A8FE012010BD127800F124010A7096
:1006C00000224A700122EDE711684FF0FF32E9E79E
:1006D000074B70B50D467B44FFF7D1FF0446284613
:1006E00000F05CF810B14FF0FF3070BD204670BDD7
:1006F0004B3A000010B5203AC0F00B80B1E818501A
:10070000203AA0E81850B1E81850A0E81850BFF4FB
:10071000F5AF5FEA027C24BFB1E81850A0E818509A
:1007200044BF18C918C0BDE810405FEA827C24BFEE
:1007300051F8043B40F8043B08BF7047D20728BF7C
:1007400031F8023B48BF11F8012B28BF20F8023BCB
:1007500048BF00F8012B70474FF000020429C0F099
:10076000128010F0030C3FF402AFCCF1040CBCF18A
:10077000020F18BF00F8012BA8BF20F8022BA1EB35
:100780000C01FFF7F4BE5FEAC17C24BF00F8012B27
:1007900000F8012B48BF00F8012B7047007B00F0E8
:1007A0008000704700487047C46300207546FFF71B
:1007B000F9FFAE4605006946534620F0070085461E
:1007C00018B020B5FFF7CAFDBDE820404FF0000685
:1007D0004FF000074FF000084FF0000B21F0070129
:1007E000AC46ACE8C009ACE8C009ACE8C009ACE86C
:1007F000C0098D46704710B50446AFF3008020460F
:10080000BDE81040FFF733BD00B587B001214806B1
:1008100002F07CF80121880602F078F8484800F0E0
:1008200063FC04A800F09BFE00208DF816008DF8F4
:1008300017008DF818008DF819008DF81A000120A6
:100840008DF81B0000208DF812008DF81300092090
:100850008DF8140003208DF81500ADF8100004A9E0
:10086000374800F07AFD00208DF80A008DF80B0063
:1008700001208DF80C000020ADF80000ADF802005A
:10088000ADF80400ADF80600ADF8080001208DF8C1
:100890000D00684600F044FC01220221284800F0C7
:1008A00053FD01221146264800F04EFD254800F078
:1008B0001BFC04A800F053FE00208DF816008DF8F4
:1008C00017008DF818008DF819008DF81A008DF8B2
:1008D0001B008DF812008DF8130009208DF814000C
:1008E00003208DF81500ADF8100004A9154800F09C
:1008F00034FD0E208DF80A0000208DF80B00012039
:100900008DF80C000020ADF80000ADF80200ADF845
:100910000400ADF80600ADF8080001208DF80D00C8
:10092000684600F0FDFB01220221064800F00CFDA4
:1009300001221146034800F007FD07B000BD00008A
:10094000006400400068004000B58FB001214FF402
:10095000C00001F0CBFF2E4801F0E0F8684601F03E
:10096000E7F94FF0006000902A4801902A48029071
:10097000002003901E200490002005904FF480601A
:1009800006900020079008904FF4807009900002B4
:100990000A9000200B900C900D900E9069461C4818
:1009A00001F098F900221C491E31194801F06DF937
:1009B0000121174801F05EF90121154801F0A2F864
:1009C0004FF02060009015480190154802900020DB
:1009D000039080200490002005904FF480600690E2
:1009E00000200890079009904FF480300A90002072
:1009F0000B9003200C9000200D900E906946094842
:100A000001F068F90121074801F07CF80FB000BD42
:100A100040640240041001405C0D0020047C004052
:100A2000380E0020A06002401CB50121084601F0EC
:100A30005DFF0121022001F059FF0121082001F092
:100A400055FF0121102001F051FF0121402001F04C
:100A50004DFF01220021674801F046FA0120009075
:100A600002208DF804008DF8050000208DF80600A6
:100A700001208DF8070069465E4801F0EDF9092272
:100A800001215D4801F030FA092200215A4801F0A5
:100A90002BFA0320009002208DF804006946564886
:100AA00001F0DAF909220D21544801F01DFA09225A
:100AB0000C21524801F018FA4FF4405000900220E7
:100AC0008DF8040069464D4801F0C6F908220E2150
:100AD0004B4801F009FA08220921494801F004FABB
:100AE0004FF48440009002208DF804008DF805003A
:100AF00000208DF8060001208DF807006946404867
:100B000001F0AAF9072211463C4801F0EDF98020D6
:100B1000009002208DF8040000208DF805000120CF
:100B20008DF807006946354801F096F9082207213B
:100B3000344801F0D9F908221146324801F0D4F9BD
:100B40004FF4C070009002208DF804008DF805006D
:100B500000208DF8060001208DF80700694629481D
:100B600001F07AF908220021264801F0BDF9082297
:100B70000121244801F0B8F90320009002208DF8EB
:100B8000040000208DF8060003208DF805000020E9
:100B90008DF8070069461B4801F05EF901208DF8C9
:100BA00004006020009000208DF8060003208DF8DE
:100BB00005006946134801F04FF9072205210E4848
:100BC00001F092F9072206210B4801F08DF960200F
:100BD000009002208DF804008DF8050000208DF8AB
:100BE000060001208DF807006946034801F034F93A
:100BF0001CBD000000000240000C02400004024046
:100C0000001802400010024010B5FFF70DFF00F081
:100C10000BF8FFF7F9FD00F090F800F0C9F8FFF7C6
:100C200093FE01F027FF10BD08B54FF4407001F0AE
:100C3000A1FC14208DF8000000208DF801008DF833
:100C4000020001208DF80300684601F057FC1320D4
:100C50008DF8000000208DF801008DF802000120C1
:100C60008DF80300684601F049FC40208DF8000033
:100C700002208DF8010000208DF8020001208DF87F
:100C80000300684601F03AFC3F208DF80000022086
:100C90008DF8010000208DF8020001208DF803007E
:100CA000684601F02BFC25208DF8000004208DF80B
:100CB000010000208DF8020001208DF80300684635
:100CC00001F01CFC53208DF8000004208DF8010079
:100CD00001208DF802008DF80300684601F00EFC3B
:100CE00047208DF8000003208DF8010000208DF8CA
:100CF000020001208DF80300684601F0FFFB52203E
:100D00008DF8000005208DF8010001208DF802000B
:100D10008DF80300684601F0F1FB26208DF80000F5
:100D200000208DF8010003208DF8020001208DF8CD
:100D30000300684601F0E2FB08BD00B589B001215F
:100D4000072001F0E3FD0121032001F0FFFD44F63F
:100D5000206007904720ADF818000020ADF8200073
:100D6000ADF81A0006A94FF0804001F0CDFF7020C9
:100D7000ADF804000120ADF806000020ADF8100029
:100D800001A94FF0804001F077FF0821C80601F06B
:100D9000B1FF0121880701F04DFF012211469007A4
:100DA00001F060FF0121880701F050FF09B000BD8C
:100DB0001FB50121614801F0A9FD0121302001F09A
:100DC000C5FD5F4802F048FD684602F08CFE5D48B4
:100DD00000900020ADF80400ADF806004FF48060EC
:100DE000ADF808000420ADF80A000020ADF80C00B2
:100DF0006946534802F004FE01224021504802F0A7
:100E000021FD012240F224414D4802F0D4FD012190
:100E10004B4802F00BFD4C4802F01EFD684602F004
:100E200062FE4FF4E13000900020ADF80400ADF810
:100E30000600ADF808000C20ADF80A000020ADF85F
:100E40000C006946404802F0DBFD012240213E488B
:100E500002F0F8FC012240F224413B4802F0ABFDD5
:100E60000121394802F0E2FC4FF4E130009000200B
:100E7000ADF80400ADF80600ADF80800ADF80C00C0
:100E80000C20ADF80A006946304802F0B9FD012196
:100E90002E4802F0CBFC012240F225512B4802F0F3
:100EA0008AFD4021294802F0A9FC294802F0D4FC1F
:100EB000684602F018FE4FF4E13000900020ADF8D3
:100EC0000400ADF80600ADF80800ADF80C000C20E9
:100ED000ADF80A0069461E4802F092FD01211C4847
:100EE00002F0A4FC012240F22551194802F063FDF2
:100EF0004021174802F082FC4FF4E13000900020BE
:100F0000ADF80400ADF80600ADF80800ADF80C002F
:100F10000C20ADF80A0069460E4802F071FD01216F
:100F20000C4802F083FC012240F22551094802F0EE
:100F300042FD4021074802F061FC1FBD000002C0D5
:100F400000100140A0860100007C00400014014018
:100F5000007800400044004010B502210A4800F02B
:100F600063F980B1094A0021074800F080FA074977
:100F7000054802F0F9FE0421034800F061F8044935
:100F8000014800F041F810BD006400405009002005
:100F90000800003210B50121044800F045F918B1ED
:100FA0000121024800F04CF810BD00000064004030
:100FB00010B502210A4800F037F980B1094A002132
:100FC000074800F054FA0749054802F0CDFE042115
:100FD000034800F035F80449014800F015F810BD49
:100FE00000680040640900200800003210B50121AB
:100FF000044800F019F918B10121024800F020F866
:1010000010BD00000068004000220C4B994202D144
:101010000023836111E0C1F3130201F000730BB1EF
:10102000C2600AE001F080630BB1026105E001F0EB
:1010300000630BB1826000E0426070477000F030E6
:10104000B1F5007F3AD00FDC202928D006DC012939
:101050001CD004291DD0082940D11DE0402921D0F1
:10106000B1F5807F3AD126E0B1F5004F31D006DCF2
:10107000B1F5806F25D0B1F5006F2FD124E0B1F527
:10108000803F12D0B1F5003F28D111E0154A8260AF
:1010900025E00822C26022E01022C2601FE0082280
:1010A00002611CE01022026119E00822426016E091
:1010B0001022426013E00422426010E004224260E9
:1010C0000DE0042242600AE00022826104224260B4
:1010D00005E0002282610422426000E000BF00BF00
:1010E000704700000101010010B504460B4884421E
:1010F00009D10121480601F019FC00214FF00070D0
:1011000001F014FC08E00121880601F00FFC002129
:101110004FF0806001F00AFC10BD00000064004048
:1011200010B50021837A012202FA03F13D4A1268C8
:1011300042F001023B4B1A603A4A1C3212688A4361
:10114000384B1C331A60027BCAB9364A0C3212681B
:101150008A43344B0C331A604288C38842EA034303
:10116000304A4032847A42F834300288838842EA36
:1011700003432C4A4032847A02EBC4025360027B60
:10118000012A19D1274A0C3212680A43254B0C3325
:101190001A604288038842EA0343224A4032847A32
:1011A00042F83430C288838842EA03431D4A403201
:1011B000847A02EBC4025360C27A3AB9194A121D0A
:1011C00012688A43174B1B1D1A6006E0154A121D50
:1011D00012680A43134B1B1D1A60028932B9114A67
:1011E000143212688A430F4B14331A600289012AA1
:1011F00006D10C4A143212680A430A4B14331A609F
:10120000427B012A06D1074A1C3212680A43054B69
:101210001C331A60034A126822F00102014B1A6063
:1012200010BD00000066004070B504460D46002663
:1012300060692840002871D0B5F5807F5CD010DC53
:10124000082D35D006DC012D20D0022D24D0042D10
:1012500072D127E0102D31D0202D35D0402D6BD10B
:1012600038E0B5F5004F60D009DCB5F5007F49D016
:10127000B5F5806F4CD0B5F5006F5DD14FE0B5F599
:10128000803F2DD0B5F5003F56D12FE0A0682D4905
:1012900000F058FB064651E0E068032100F052FBE5
:1012A00006464BE0E068082100F04CFB064645E0AE
:1012B000E068102100F046FB06463FE0206903216C
:1012C00000F040FB064639E02069082100F03AFBB7
:1012D000064633E02069102100F034FB06462DE07D
:1012E0006068082100F02EFB064627E060681021A8
:1012F00000F028FB064621E0A069012100F022FB56
:1013000006461BE0A069022100F01CFB064615E022
:10131000A069042100F016FB06460FE00FE0A0696B
:10132000702100F00FFB064608E06068042100F021
:1013300009FB064602E0FFE7002600BF00E00026AA
:10134000304670BD010101001AB143690B4343618E
:1013500002E043698B434361704730B50246002089
:101360000023146824F002041460146844F001049B
:10137000146000E05B1C546804F001041CB94FF6D3
:10138000FF74A342F6D1546804F001040CB90020A4
:101390006CE08C79012C04D1146844F08004146052
:1013A00003E0146824F080041460CC79012C04D18B
:1013B000146844F04004146003E0146824F040040E
:1013C00014600C7A012C04D1146844F020041460D9
:1013D00003E0146824F0200414604C7A012C04D13A
:1013E000146844F01004146003E0146824F010043E
:1013F00014608C7A012C04D1146844F00804146041
:1014000003E0146824F008041460CC7A012C04D1A1
:10141000146844F00404146003E0146824F0040425
:1014200014608C78A407CD7844EA05640D7944EA09
:1014300005444D7944EA05540D886D1E2C43D46152
:10144000146824F001041460002300E05B1C54685D
:1014500004F001041CB14FF6FF74A342F6D15468A6
:1014600004F001040CB1002000E0012030BD10B5F3
:1014700000F5D87303EB01131B6803F00403137228
:10148000137A53B900F5D87303EB01131B6840F2CC
:10149000FF7404EA5353136009E000F5D87303EBBB
:1014A00001131B686FF0604404EAD303536000F536
:1014B000D87303EB01131B6803F00203537200F5AA
:1014C000D87303EB01135B6803F00F03937200F50D
:1014D000D87303EB01135B681B0AD37400F5D87350
:1014E00003EB01139B68D37200F5D87303EB011370
:1014F0009B681C0A147300F5D87303EB01139B68F7
:101500001C0C547300F5D87303EB01139B681B0E7E
:10151000937300F5D87303EB0113DB68D37300F505
:10152000D87303EB0113DB681C0A147400F5D8733D
:1015300003EB0113DB681C0C547400F5D87303EB48
:101540000113DB681B0E937421B9C36843F02003B9
:10155000C36003E0036943F02003036110BD002171
:101560008171C171017241728172C1728170C170E9
:10157000032101710221417101210180704710B5E1
:1015800002460020936803F08063B3F1806F00D1BE
:1015900010E0936803F00063B3F1006F01D1012004
:1015A00008E0936803F08053B3F1805F01D102201B
:1015B00000E00420042874D002F5C07303EB00138C
:1015C0001B6803F0010402F5C07303EB00131C60F9
:1015D0000B7A7BB94B7A0C8843EA445302F5C0740A
:1015E00004EB00142468234302F5C07404EB0014D8
:1015F000236010E00B7A4C6843EAC4034C7A23431F
:1016000002F5C07404EB00142468234302F5C0748F
:1016100004EB001423608B7A03F00F038B7202F546
:10162000C07303EB00135B6823F00F0402F5C07373
:1016300003EB00135C6002F5C07303EB00135B68FF
:101640008C7A234302F5C07404EB001463608B7B37
:101650001C064B7B44EA03440B7B44EA0323CC7A0D
:10166000234302F5C07404EB0014A3608B7C1C06BA
:101670004B7C44EA03440B7C44EA0323CC7B2343A6
:1016800002F5C07404EB0014E36002F5C07303EBD1
:1016900000131B6843F0010402F5C07303EB001351
:1016A0001C6010BD10B50246002321B1012907D0EE
:1016B00002290FD109E090681D4C00EA04030BE0F9
:1016C00090681C4C00EA040306E090681A4C00EA9B
:1016D000040301E0002300BF00BF184C181BA34205
:1016E00016D007DC83B16FF08060184470B1022817
:1016F00018D111E0B0F5007F10D0114C204448B152
:10170000B0F5003F0ED10BE002230DE000230BE00B
:10171000002309E0002307E0012305E0012303E0A3
:10172000012301E0002300BF00BFD8B210BD0000BC
:10173000030000040003000800000310000100087B
:101740000001FFF710B52DED048BB0EE408AF0EEEE
:10175000608AB0EE419A9FED330A28EE800ADFEDF1
:10176000310A08EE600A30EE490ABDEEC00A2E4882
:1017700080ED000A9FED2B0A28EE800ADFED290A92
:1017800008EE200A30EE490ABDEEC00A80ED010ADB
:10179000B1EE680ADFED230A20EE200ADFED210A10
:1017A00008EE600A30EE490ABDEEC00A80ED020A7A
:1017B000B1EE680ADFED1B0A20EE200ADFED190A00
:1017C00008EE200A30EE490ABDEEC00A80ED030A99
:1017D000D0ED030AF8EEE00AB0EE600A134802F01A
:1017E0008FF91148D0ED010AF8EEE00AB0EE600A78
:1017F0000F4802F085F90C48D0ED020AF8EEE00A35
:10180000B0EE600A0B4802F07BF90748D0ED000A01
:10181000F8EEE00AB0EE600A074802F071F9BDEC9C
:10182000048B10BD3333333FB0630020940000209D
:1018300028010020BC01002050020020354991ED14
:10184000001A354981ED001A344991ED071ADFED90
:10185000341A31EE611A334981ED001A2E4991EDA7
:10186000001A3049D1ED001A31EE611A2E4981ED8E
:10187000001A91ED001A20EE011AD1ED001A2B4941
:1018800091ED002A71EEC21A00EEA11A284981EDED
:10189000001A254991ED001A244981ED001A2249C8
:1018A00091ED001AF6EE001AB4EEE11AF1EE10FA1C
:1018B0000CD291ED001AFEEE001AB4EEE11AF1EE30
:1018C00010FA03DD9FED1B1A81ED001A184991ED06
:1018D000001ADFED191AB4EEE11AF1EE10FA03DD89
:1018E0009FED151A81ED001A114991ED001ADFEDF7
:1018F000131AB4EEE11AF1EE10FA03D29FED0F1AAB
:1019000081ED001A0A4991ED001A0D4981ED021A84
:1019100070470000200800200C090020B80E0020AD
:101920000000344304090020F808002000090020CA
:1019300008090020000000000000FA440000FAC47A
:10194000306300200246002002EA01030BB10120AF
:1019500000E000207047000070B506460D461446B2
:101960005648864254D1012055490870554908709F
:101970004002534948600821514881730021017396
:10198000417340F2FF104F49486008214D48817370
:10199000002101734173092D2ED2DFE805F02D05DA
:1019A0000A0F14191E232800210A4548C173047424
:1019B00022E0210A4248417484741DE0210A404813
:1019C000C174047518E0210A3D484175847513E01F
:1019D000210A3C48C17304740EE0210A394841745D
:1019E000847409E0210A3748C174047504E0210AAF
:1019F00034484175847500BF00BF3149091D304628
:101A000003F0D0FA2F49091D304603F0CBFA53E01A
:101A100002202D4908702D49087000022A494860AB
:101A200008212948817300210173417340F2FF109E
:101A300026494860082125488173002101734173BC
:101A4000092D2ED2DFE805F02D050A0F14191E23EB
:101A50002800210A1C48C173047422E0210A1A4894
:101A6000417484741DE0210A1748C174047518E09C
:101A7000210A15484175847513E0210A1348C17382
:101A800004740EE0210A11484174847409E0210AAB
:101A90000E48C174047504E0210A0C484175847530
:101AA00000BF00BF0849091D304603F07BFA074913
:101AB000091D304603F076FA70BD00000064004056
:101AC000840F00209C0F0020B40F0020CC0F0020BA
:101AD0000246094B9A4201D2084801E006481038F4
:101AE00001F000531BB1064B0B40C36002E0044BF6
:101AF0000B408360704700001064024000600240A9
:101B00007D0F7D0F21B1026842F00102026003E007
:101B1000026822F00102026070470000016821F0B3
:101B2000010101600021016041608160C1600161CB
:101B3000212141614A49884204D13D21484A103A55
:101B400091608CE046491831884205D14FF47461A8
:101B5000434A103A916082E041493031884205D1D0
:101B60004FF474113E4A103A916078E03C49483194
:101B7000884205D14FF07461394A103A91606EE0A5
:101B800037496031884204D13649354A103AD1602C
:101B900065E033497831884204D13349304A103AFC
:101BA000D1605CE02E499031884204D12F492C4A03
:101BB000103AD16053E02A49A831884205D14FF04C
:101BC0003D51274A103AD16049E02949884204D161
:101BD0003D21274A083A116041E0254918318842E1
:101BE00005D14FF47461224A083A116037E0204968
:101BF0003031884205D14FF474111D4A083A116002
:101C00002DE01B494831884205D14FF07461184AD4
:101C1000083A116023E016496031884204D1114925
:101C2000134A121F11601AE011497831884204D119
:101C30000D490F4A121F116011E00D499031884281
:101C400004D10A490A4A121F116008E00849A83164
:101C5000884204D14FF03D51054A121F1160704770
:101C6000106002403D000020400F002000003D2099
:101C70001064024021B1026842F48022026003E055
:101C8000026822F480220260704722B1036843F4A4
:101C90000023036003E0036823F400230360016171
:101CA0007047014600200A6802F001020AB10120D3
:101CB00000E0002070470146486880B27047014646
:101CC00000200A6802F400220AB1012000E000208E
:101CD0007047000010B500220268134B1A40CC6810
:101CE0000B6823434C6923438C692343CC6923430A
:101CF0000C6A23434C6A23438C6A23434C6B234373
:101D00008C6B23431A430260426922F00702D1E937
:101D10000B3423431A4342610B6943604B68836071
:101D20008B68C36010BD00003F801CF041607047AD
:101D30000021016041608160C16001614161816198
:101D4000C161016241628162C16201634163816379
:101D50007047000008B5002072E0002106E001EBAA
:101D60008002394B9A5C0DF80120491C0429F6D3F6
:101D70009DED000A354901EB800181ED000A3349F0
:101D800091ED000A324981ED000A304991ED010AD6
:101D90002F4981ED010A2D4991ED020A2C4981ED6F
:101DA000020A2A4991ED030A294981ED030A2749CC
:101DB00091ED040A274981ED000A244991ED050AB5
:101DC000244981ED010A214991ED060A214981ED5D
:101DD000020A1E4991ED070A1E4981ED030A1B49BB
:101DE00091ED080A1B4981ED040A184991ED090A91
:101DF000184981ED050A154991ED0A0A154981ED49
:101E0000060A124991ED0B0A124981ED070A0F49A2
:101E100091ED0C0A0F4981ED080A0C4991ED0D0A6C
:101E20000C4981ED090A094991ED0E0A094981ED34
:101E30000A0A064991ED0F0A064981ED0B0A401C7A
:101E400010288ADB08BD00009C0900209C0A0020A5
:101E50001009002020090020F0B50A4600210023C7
:101E6000002400BF3DE0012505FA01F3156805EAED
:101E700003049C4234D105684F000326BE40B5439D
:101E8000056015794E00B540066835430560157943
:101E9000012D02D01579022D16D185684F00032639
:101EA000BE40B543856055794E00B54086683543E0
:101EB0008560456801268E40B54345604568967942
:101EC0008E40B6B235434560C5684F000326BE401C
:101ED000B543C560D5794E00B540C6683543C56089
:101EE000491C1029BFD3F0BDF0B5002300244D07D5
:101EF000ED0E02FA05F3CE1000F1200555F826503C
:101F00004E07F70E0F26BE40B543CF1000F1200656
:101F100046F82750CE1000F1200555F8265045EA26
:101F20000304CE1000F1200545F82640F0BD02461E
:101F3000002013690B400BB1012000E00020704726
:101F400010B500F08BF800F001F810BD10B502F0EC
:101F50000BF910BD70B585B004460D46164694F8D1
:101F600022008DF800002320005D8DF80100242060
:101F7000005D8DF802002520005D8DF8030027200C
:101F8000005D8DF804002620005D8DF805002820F6
:101F9000005D8DF806002920005D8DF807002A20DD
:101FA000005D8DF808002B20005D8DF809002C20C5
:101FB000005D8DF80A002D20005D8DF80B002E20AD
:101FC000005D8DF80C002F20005D8DF80D00302095
:101FD000005D8DF80E003120005D8DF80F0032207D
:101FE000005D8DF810003320005D8DF81100112D7B
:101FF00000DD112504F134002844154908600DEB7B
:1020000005001449086046B90A4612681178124A58
:10201000501902F0B5F805B070BD0E4A126811787B
:102020000D4A501902F0ACF80949096809780844CA
:10203000074909680870064800680078B04203DD67
:102040000020034909680870014800680078E2E749
:102050006000002064000020240E002010B59FEDD9
:10206000FD1ADFEDFD0AB2EE060AFC4801F07DFF25
:102070009FEDFB0AF94801F072FF9FEDFA0AF7485D
:1020800001F070FF9FEDF81ADFEDF30AB2EE000ADF
:10209000F248343001F069FF9FEDF10AEF48343027
:1020A00001F05DFF9FEDF10AEC48343001F05AFF7A
:1020B0009FEDE81ADFEDE80AB2EE060AEC4801F0FF
:1020C00054FF9FEDE70AEA4801F049FF9FEDE50A5A
:1020D000E74801F047FF9FEDE41ADFEDDF0AB2EEBB
:1020E000000AE348343001F040FF9FEDDD0AE0488C
:1020F000343001F034FF9FEDDD0ADD48343001F06B
:1021000031FF9FEDD41ADFEDD40AB2EE060AD948AA
:1021100001F02BFF9FEDD20AD64801F020FF9FED82
:10212000D10AD44801F01EFF9FEDCF1ADFEDCA0A95
:10213000B2EE000ACF48343001F017FF9FEDC80A15
:10214000CC48343001F00BFF9FEDC80AC948343049
:1021500001F008FF9FEDBF1ADFEDBF0AB2EE060ADD
:10216000C54801F002FF9FEDBE0AC34801F0F7FE2B
:102170009FEDBC0AC04801F0F5FE9FEDBB1ADFEDF4
:10218000B60AB2EE000ABC48343001F0EEFE9FED14
:10219000B40AB948343001F0E2FE9FEDB40AB64803
:1021A000343001F0DFFE9FEDAB1ADFEDAB0AB2EE8B
:1021B000060AB24801F0D9FE9FEDA90AAF4801F026
:1021C000CEFE9FEDA80AAD4801F0CCFE9FEDA61A09
:1021D000DFEDA10AB2EE000AA848343001F0C5FED6
:1021E0009FED9F0AA548343001F0B9FE9FED9F0A8C
:1021F000A248343001F0B6FE9FED961ADFED960A44
:10220000B2EE060A9E4801F0B0FE9FED950A9C488A
:1022100001F0A5FE9FED930A994801F0A3FE9FED02
:10222000921ADFED8D0AB2EE000A9548343001F0C3
:102230009CFE9FED8B0A9248343001F090FE9FED9A
:10224000910A8F48343001F08DFE9FED871ADFED43
:10225000820AB2EE0E0A8C4801F087FE9FED800ADA
:10226000894801F07CFE9FED890A874801F07AFEDB
:102270009FED781ADFED780AB2EE080A8248343012
:1022800001F073FE9FED760A7F48343001F067FE5F
:102290009FED7F0A7C48343001F064FE9FED7D1A8B
:1022A000DFED6D0AB3EE010A7B4801F05EFE9FEDA3
:1022B0006C0A794801F053FE9FED740A764801F0EC
:1022C00051FE9FED741ADFED640AB2EE000A724807
:1022D000343001F04AFE9FED620A6F48343001F05D
:1022E0003EFE9FED680A6C48343001F03BFE9FEDE6
:1022F0005E1ADFED590AB2EE0E0A684801F035FEAB
:102300009FED570A654801F02AFE9FED650A634874
:1023100001F028FE9FED631ADFED4F0AB2EE040ACA
:102320005E48343001F021FE9FED4D0A5B483430A9
:1023300001F015FE9FED5A0A5848343001F012FEA4
:102340009FED491ADFED440AB2EE040A564801F047
:102350000CFE9FED430A544801F001FE9FED530A25
:10236000514801F0FFFDB6EE001ADFED3B0AB2EE78
:10237000000A4D48343001F0F8FD9FED390A4A4813
:10238000343001F0ECFD9FED4A0A4748343001F04B
:10239000E9FD9FED351ADFED300AB2EE0A0A454835
:1023A00001F0E3FD9FED2E0A424801F0D8FD9FEDBC
:1023B000370A404801F0D6FD9FED3A1ADFED260AB4
:1023C000B2EE000A3B48343001F0CFFD9FED240A05
:1023D0003848343001F0C3FD9FED310A35483430C0
:1023E00001F0C0FD9FED201ADFED1B0AB3EE020ADB
:1023F000314801F0BAFD9FED1A0A2F4801F0AFFDF8
:102400009FED270A2C4801F0ADFD9FED261ADFED68
:10241000120AB2EE000A2848343001F0A6FD9FED02
:10242000100A2548343001F09AFD9FED1D0A22481C
:10243000343001F097FD9FED0C1ADFED070AB3EE83
:10244000020A1E4801F091FD9FED050A1B4801F0AC
:1024500086FD35E09A99193F00000000C000002079
:1024600000007A440000FA45CDCCCC3E00803B45CC
:1024700054010020E80100207C020020100300200D
:10248000A403002000409C453804002000401C4666
:1024900000A00C460AD7233CCC0400206005002095
:1024A00000C0DA45CDCC4C3EF405002000007A4552
:1024B0000000FA44880600201C070020B007002016
:1024C0001FED090A0C4801F04DFD1FED0A1A5FEDE2
:1024D0001E0AB2EE000A0848343001F046FD1FED36
:1024E000200A0548343001F03AFD1FED130A024876
:1024F000343001F037FD10BDB007002070B5002169
:1025000000230F22C4781CB3174C246804F4E06441
:10251000C4F5E064C4F30721C1F10404E3B20A4145
:1025200044789C40E1B28478144021430C07210E8A
:102530000E4C05786155047804F01F050124AC4069
:1025400005786D11AD0005F1E025C5F8004109E001
:10255000047804F01F050124AC40054D067876117F
:1025600045F8264070BD00000CED00E000E400E0FE
:1025700080E100E002490143024A11607047000017
:102580000000FA050CED00E070B506460024351D8C
:10259000A2E0285DC02840D012DCA52829D008DCA4
:1025A00090281ED0A02821D0A12820D0A22877D101
:1025B0001EE0B02826D0B12825D0B228F7D123E0DC
:1025C000D1287BD006DCC12828D0C22827D0D0282B
:1025D000EDD12DE0D92865D0E02879D0F02879D147
:1025E00074E068783F490870A41C74E000BF00BF25
:1025F00000BF29193C4851F8012F02608988818069
:10260000E41D68E000BF00BF2919384851F8012FC8
:10261000026089888180E41D5DE000BF00BF291948
:10262000334851F8012F026089888180E41D52E00F
:10263000601C295CA01C285C01EB002000B200EEAD
:10264000100AB8EEC00ADFED2B0A80EE201A2A48E5
:1026500080ED001AE01C295C201D285C01EB0020A5
:1026600000B200EE100AB8EEC00ADFED220A80EEDA
:10267000201A214880ED011A601D295CA01D285CEC
:1026800001EB002000B200EE100AB8EEC00AF2EE34
:10269000040A80EE201A184880ED021AE41D1AE0A0
:1026A00018E00BE02919144851F8012F02604A681C
:1026B0004260896881600D340DE009E02819411CF1
:1026C00010220E48FDF704FF113404E0641D02E0FF
:1026D000641D00E000BF00BFB6F88400A0423FF7D1
:1026E00058AF70BD7C0000206A0000207000002000
:1026F000760000200000C842680F0020740F002000
:1027000008B50020009003E00121684602F05CFE5D
:10271000FAE7000010B504466148007807287DD22A
:10272000DFE800F0040A333D4D5363005A2C02D118
:1027300001205B490870B0E05A48006880F8884082
:102740005848006890F88800A52804D0A62806D02C
:10275000A72818D10FE002205149087013E0524811
:10276000006820B14F4800684F4909688847002039
:102770004B49087007E000204A49096808600620B4
:102780004749087000BF00BF87E046480068A0F8CE
:102790008440464884700320414908707DE04148E8
:1027A0000068B0F8840040EA04203E490968A1F8B6
:1027B00084003E48C4700420394908706DE03C48EC
:1027C000048005203649087067E03948008840EAEF
:1027D00004203749088000203249096808603549DB
:1027E000088006202E49087057E02E4800680168CE
:1027F0002C4800680068401C2A4A1268106029486A
:102800000068001D44542748006890F88800A728F5
:1028100013D1244800680068082800E039E00CD390
:10282000082020490968A1F884001E4800681E4954
:102830000968884700201A4908701A48006800682B
:1028400018490968B1F88410884221D315480068F6
:1028500090F88800A5281BD104221449154801F0DE
:10286000E5F91048006802680E480168091D114822
:1028700001F0DCF90F4800880D490988884204D12D
:10288000084800680849096888470020044908701A
:1028900003E000200249087000BF00BF002010BD07
:1028A0008C00002084000020800000208D0000208B
:1028B000880000208A00002070B504460D460448B8
:1028C00005608C212046FDF750FE0248046070BD73
:1028D000800000208400002008B50020009003E064
:1028E0000121684602F070FDFAE7000029B1064AAE
:1028F00012680243044B1A6004E0034A12688243E0
:10290000014B1A60704700003038024029B1064A76
:1029100012680243044B1A6004E0034A12688243BF
:10292000014B1A60704700004038024029B1064A46
:1029300012680243044B1A6004E0034A126882439F
:10294000014B1A60704700002038024029B1064A46
:1029500012680243044B1A6004E0034A126882437F
:10296000014B1A60704700004438024029B1064A02
:1029700012680243044B1A6004E0034A126882435F
:10298000014B1A607047000024380240F0B5002166
:1029900000220024022500260223324F3F6807F060
:1029A0000C0121B1042905D0082937D105E02E4FAB
:1029B000076036E02D4F076033E02A4F3F1F3F6826
:1029C000C7F38056274F3F1F3F6807F03F036EB1A4
:1029D000264FB7FBF3F7DFF88CC0ACF1040CDCF842
:1029E00000C0CCF3881C07FB0CF40CE01E4FB7FBB7
:1029F000F3F7DFF870C0ACF1040CDCF800C0CCF3E6
:102A0000881C07FB0CF4174F3F1F3F68C7F30147B3
:102A10007F1C7D00B4FBF5F7076002E0124F0760F2
:102A200000BF00BF0F4F3F6807F0F0010909104FCA
:102A30007A5C0768D74047600A4F3F6807F4E05167
:102A4000890A0B4F7A5C4768D7408760054F3F681B
:102A500007F46041490B064F7A5C4768D740C7606E
:102A6000F0BD0000083802400024F400001BB7004D
:102A70007408002010B50848006860B9002407E019
:102A800001F09EF8FA2C02D1012003490860641C71
:102A9000B4F5967FF4DD10BD600800200CB5002071
:102AA000019000904148006840F480303F49086040
:102AB00000BF3E48006800F4003000900198401CC0
:102AC0000190009818B90198B0F5A04FF1D137489E
:102AD000006800F4003010B10120009001E00020F7
:102AE00000900098012860D130484030006840F0E4
:102AF00080502E49403108602D48006840F4404025
:102B00002B490860294808300068284908310860C6
:102B10000846006840F4004008600846006840F439
:102B2000A05008602348091F0860081F006840F093
:102B30008070091F086000BF1C48006800F000702A
:102B40000028F9D01A48006840F48030184908601D
:102B500000BF1748406800F480300028F9D01448BE
:102B6000006840F400301249086000BF1048406817
:102B700000F400300028F9D040F205700E490860DA
:102B80000A480830006820F003000849083108604E
:102B90000846006840F00200086000BF03480830A3
:102BA000006800F00C000828F8D10CBD0038024085
:102BB000007000400C5A4007003C024010B503F082
:102BC000A5FA012801D002F0A9FE10BD10B51548E4
:102BD000006840F47000134908601348006840F032
:102BE00001001149086000200F49083108600E48B3
:102BF00000680E4908400C4908600D48091D08602E
:102C0000081F006820F48020091F08600020064982
:102C10000C310860FFF742FF4FF000600149803936
:102C2000086010BD88ED00E000380240FFFFF6FEAE
:102C30001030002421B1028842F08002028004E0BA
:102C400002884FF67F731A400280704721B10288D4
:102C500042F00102028004E002884FF6FE731A403F
:102C6000028070471AB183890B43838102E0838914
:102C70008B4383817047000070B50024002200233D
:102C8000058C4FF6FE7635400584028C8388048BD4
:102C90004FF68F752C40B51E2C400D882C43751EA9
:102CA0002A408D892A434D882A43104DA84202D0DC
:102CB0000F4DA84213D14FF6F7752A40CD892A430C
:102CC0004FF6FB752A408D882A434FF6FF652B404F
:102CD0004FF6FF552B400D8A2B434D8A2B438380A3
:102CE00004838D684563028470BD000000000140CC
:102CF000000401400A460021018B4FF6F77319408A
:102D0000114301837047000000220288184B98424B
:102D10000ED0184B98420BD0B0F1804F08D0164B14
:102D2000984205D0154B984202D0154B984204D1D9
:102D30004FF68F731A404B881A43124B984207D0B4
:102D4000114B984204D04FF6FF431A400B891A43A7
:102D500002804B68C3620B880385054B984202D002
:102D6000044B984201D18B7A0386012383827047FA
:102D70000000014000040140000400400008004041
:102D8000000C0040001000400014004008B5002076
:102D90000090F8E07C48D0ED010A9FED7C1A80EEAF
:102DA000810ADFED7B0A20EE200A7A4880ED000AD6
:102DB0007548D0ED020A9FED751A80EE810ADFEDAD
:102DC000740A20EE200A734880ED010A6E48D0EDA7
:102DD000030A9FED6E1A80EE810ADFED6F0A20EE86
:102DE000200A6E4880ED000A674890ED0C0AF7EE65
:102DF000000AB4EE600AF1EE10FA19D168480068D2
:102E0000401C6749086008460068482810DB654890
:102E1000006801280CD1644890ED000ADFED630AD8
:102E200030EE200A80ED000A002008605D4908604D
:102E3000554890ED0C0AB5EEC00AF1EE10FA07D134
:102E4000594890ED000A80ED000A012055490860BC
:102E50004D4890ED0E0AF7EE000AB4EE600AF1EE6E
:102E600010FA19D152480068401C514908600846C0
:102E70000068482810DB4F48006801280CD14A48F8
:102E800090ED000ADFED490A30EE600A80ED000A9D
:102E900000200860474908603B4890ED0E0AB5EEF7
:102EA000C00AF1EE10FA07D13F4890ED000A80ED1C
:102EB000000A01203F4908603F4890ED000A3F4862
:102EC000D0ED000A30EE200A3248D0ED000A30EE94
:102ED000200A3B48D0ED000A30EE200A394880ED48
:102EE000000A354890ED010A3448D0ED010A30EE71
:102EF000200A2848D0ED010A30EE200A3048D0EDF3
:102F0000010A30EE200A2F4880ED010A2E4890ED8C
:102F1000000A2248D0ED000A30EE200A2B48D0EDFE
:102F2000000A30EE200A2A4880ED000A294800688D
:102F300001280AD01C4890ED000A2548D0ED000A6F
:102F400030EE200A184880ED000ADFED180A9FEDE8
:102F5000220A2248FEF772FC1E48006801280ED0A3
:102F60001848D0ED021AB0EE611AD0ED011AF0EE59
:102F7000610AD0ED001AB0EE610AFEF7E3FB012111
:102F8000684602F021FA05E7DC0B0020000025442A
:102F900000409C4554630020CDCCCC3D2C08002043
:102FA0004008002048080020200800200000B4420B
:102FB000440800204C0800203C63002048630020A7
:102FC00060630020306300203008002028080020C3
:102FD000340800201C08002000008C426C63002094
:102FE00008B50020009049E0012206212448FEF7A0
:102FF000B1FF012207212248FEF7ACFF0122082180
:103000001F48FEF7A7FF642209211D48FEF7A2FF13
:1030100001220A211A48FEF79DFF01220B211848C0
:10302000FEF798FF01220C211548FEF793FF0122BD
:103030000D211348FEF78EFF01220F211048FEF7E5
:1030400089FF01220E210E48FEF784FF032204218E
:103050000B48FEF77FFF022205210948FEF77AFFA1
:10306000642210210648FEF775FF01221121044851
:10307000FEF770FF0121684602F0A6F9B4E70000F0
:10308000980D00200025002421E011480068D0B1EF
:1030900000235A1E19460E48006802F093FC0546AC
:1030A000012D14D1002409E00A48065D3046FFF7DF
:1030B00031FB094800F0D8FD601C84B20748008845
:1030C000844204DAF0E715B90A2002F043F9DCE79C
:1030D00018080020380E0020B80E002068000020DC
:1030E0001CB503220021012002F032FC27490860B0
:1030F0000020052103464FF49672CDE9001024A16B
:10310000264802F0D3FF0020042103464FF49672B4
:10311000CDE9001022A1284802F0C8FF00200421B8
:1031200003464FF49672CDE9001024A1284802F01E
:10313000BDFF0020042103464FF49672CDE9001034
:1031400024A1284802F0B2FF0020042103464FF4D6
:103150009672CDE9001024A1274802F0A7FF0020B5
:10316000042103464FF49672CDE9001023A12748AD
:1031700002F09CFF0020042103464FF49672CDE933
:10318000001023A1264802F091FF1CBD1808002062
:103190005461736B5F4D61696E0000002532000859
:1031A0005461736B5F48693231396D4461746144B5
:1031B00065636F6465000000853000085461736BBF
:1031C0005F436861737369734374726C000000003D
:1031D0008D2D00085075745F52696E675F4374727D
:1031E0006C000000D92800084F7665727475726E05
:1031F0005F4374726C000000012700085461736B18
:103200005F4461746147657400000000E12F0008AD
:103210005461736B5F54696D65436F756E74000024
:103220008133000808B5002000907FE0404890ED11
:10323000080AF7EE000AB4EE600AF1EE10FA04D1C3
:103240009FED3C0A3C4800F08BFC394890ED080AA1
:10325000B5EEC00AF1EE10FA04D19FED380A3648F7
:1032600000F07EFC364890F82A00012801D100F0D9
:10327000A7FC2F4890ED040ABDEEC00A314880ED4E
:10328000000A006801284DD12F48017800222F48FC
:10329000FEF762FB2E48017800222C48FEF75CFB0B
:1032A0002C48017800222948FEF756FB2A4801786D
:1032B00000222648FEF750FB2848017800222348C8
:1032C000FEF74AFB2648017800222048FEF744FB1F
:1032D0002448017800222448FEF73EFB2348017869
:1032E00000222148FEF738FB2148017800221E48C1
:1032F000FEF732FB1F48017800221B48FEF72CFB2B
:103300001D48017800221848FEF726FB0A4801787C
:1033100000221548FEF720FB1848017800221248C9
:10332000FEF71AFB0121684602F04EF87EE7000026
:10333000DC0B002000007A45F006002000000000B1
:10334000980D00201C08002094000020006400401C
:1033500028010020BC01002050020020E4020020CF
:10336000780300200C04002000680040A004002026
:1033700034050020C80500205C06002084070020DA
:1033800008B50020009003E00121684602F01CF817
:10339000FAE7000010B540F22551234800F0E1FAA9
:1033A000002840D0204800F095FBC4B240F22551DF
:1033B0001D4800F02CFA1D48007801280BD11C484C
:1033C0000068FF2807D81A4801680068401C184A9E
:1033D0001060184844545A2C03D101201649087033
:1033E00020E0A52C09D114480078012805D10F4907
:1033F000087000200E49086014E0A62C03D10120BB
:103400000E4908700EE06A2C0CD10C480078012897
:1034100008D1FEF79FFC0020044908700649087097
:103420000649087000BF10BD007800404000002031
:103430003C0000209C0900204100002042000020A8
:1034400008B540F224411C4800F08BFA98B31A48A2
:10345000001D00881848008800211848FEF752FB1C
:103460001648001D0068C0F1800015490880154904
:103470001248FEF72DFB00BF1048FEF712FC002893
:10348000FAD180210D48FEF751FC01210B48FEF7CF
:1034900039FB0D48006870B169460B48006802F0BE
:1034A00037FD009838B14FF0805008490860BFF3ED
:1034B0004F8FBFF36F8F08BD007C0040A0600240BB
:1034C00068000020000030201808002004ED00E013
:1034D00010B540F22441294800F043FA00284BD0AF
:1034E00026480088254880882548FEF7E8FB08BB69
:1034F00000212348FEF706FB2148FEF7DCFBC0F164
:103500001E00204908601E201D49091D0860081F73
:10351000006840F40020091F086001211848FEF7E8
:10352000F1FA18480068122826D11749174800F008
:1035300027FD21E000211248FEF7E4FA1048FEF7CB
:10354000BAFBC0F11E000F4908601E200C49091D7E
:103550000860081F006820F40020091F086001218E
:103560000748FEF7CFFA07480068122804D1064939
:103570001E31064800F004FD10BD0000001001409F
:1035800040640240540000205C0D0020980D002093
:1035900010B540F22551384800F0E3F900286AD010
:1035A000354800F097FAC4B240F22551324800F095
:1035B0002EF93248007870B131480068FF2808D8E9
:1035C0002F4801680068401C2D4A10602D48445463
:1035D00001E001F06BFC2948007830B900F012FBE3
:1035E00029480068401C284908605A2C03D1012052
:1035F000264908703EE0A52C06D124480078012811
:1036000002D12349087035E0B32C0DD11F48007852
:10361000012809D11E480078012805D117490870F2
:1036200000201749086025E0A62C03D10120194984
:1036300008701FE06A2C06D116480078012802D1D4
:103640001549087016E09F2C14D112480078012803
:1036500010D11148007801280CD100F0ADFD0020F8
:103660000D49087005490870084908700949087033
:103670000749087000BF10BD00440040480000200A
:1036800044000020DC0A00205000002049000020F7
:103690004C0000204A0000204B00002010B540F2F2
:1036A00025514C4800F05DF901287CD140F22551AC
:1036B000484800F0ACF8474800F00CFA00EE100A59
:1036C000B8EE400A444880ED000A90ED000ABDEED5
:1036D000C00A10EE100A4149414A126841F822001E
:1036E0003F48006860B108464068592803D0002070
:1036F0003B49086004E03A480068401C38490860CB
:1037000036480068592803D000203549086005E094
:103710003348006810B9012031490860304800681A
:10372000092855D100202E4908602C4800682B49F3
:10373000496808442949896808442849C9680844EF
:103740002649096908442549496908442349896982
:1037500008442249C96908442249086008460068AB
:103760002149096890FBF1F201FB12001B49096A2B
:1037700088422DD1194880681849C96840EA01205B
:1037800000EE100AB8EEC00A184880ED000A13488F
:1037900000691249496940EA012000EE100AB8EEBA
:1037A000C00A134800E013E080ED000A0B4880696E
:1037B0000A49C96940EA012000EE100AB8EEC00AC1
:1037C0000C4880ED000AB7EE000A0B4880ED000AB5
:1037D00010BD0000001401401800002078090020EE
:1037E0003400002028000020380000201C000020A9
:1037F00020000020240000202C00002001F4007292
:10380000B2F5007F00D100BFCA430280704710B5F7
:103810000022002340F66A14A14200D100BF0A1220
:1038200001249440A3B2DC43048010BD21B18289FD
:1038300042F40052828104E082894DF6FF731A40FF
:10384000828170471AB1838A0B43838202E0838AA4
:103850008B4383827047000010B50446324884428F
:1038600008D101211020FFF781F800211020FFF777
:103870007DF857E02D48844209D101214804FFF723
:1038800055F800214FF40030FFF750F84AE028487F
:10389000844209D101218804FFF748F800214FF440
:1038A0008020FFF743F83DE02248844209D10121FE
:1038B000C804FFF73BF800214FF40020FFF736F86B
:1038C00030E01D48844209D101210805FFF72EF898
:1038D00000214FF48010FFF729F823E017488442B5
:1038E00008D101212020FFF741F800212020FFF717
:1038F0003DF817E01248844209D101218807FFF7FB
:1039000015F800214FF08040FFF710F80AE00D484D
:10391000844207D101214005FFF708F80021600526
:10392000FFF704F810BD0000001001400044004003
:1039300000480040004C004000500040001401408E
:1039400000780040007C004002460020B1F5007F76
:1039500000D100BF13880B400BB1012000E0002014
:10396000704770B50246002400230025002040F671
:103970006A16B14200D100BFC1F3421501F01F0326
:10398000012606FA03F3012D02D19689334006E0A1
:10399000022D02D1168A334001E0968A33400C1280
:1039A000012606FA04F41688344013B10CB1012044
:1039B00000E0002070BDF0B503460024002600257D
:1039C000002040F66A17B94200D100BF1846C1F383
:1039D000421401F01F06012707FA06F5012C01D158
:1039E0000C3004E0022C01D1103000E014301AB188
:1039F00007682F43076002E00768AF430760F0BD28
:103A00002DE9FF4705460E460024A14600BFA0460B
:103A1000B08900B100BF2C8A24F44054F0880443DC
:103A20002C82AC8941F20C608443B0883189084310
:103A3000718908430443AC81AC8A24F44074B08992
:103A40000443AC826846FEF7A1FF2048854202D0BD
:103A50001F48854202D1DDF80C9001E0DDF80890A6
:103A6000A88900F4004040B109EBC90000EB09103F
:103A700031684900B0FBF1F707E009EBC90000EB42
:103A8000091031688900B0FBF1F76420B7FBF0F052
:103A900004012009642101FB1078A88900F400408A
:103AA00040B1322000EBC800B0FBF1F000F007009D
:103AB000044308E0322000EB08106421B0FBF1F071
:103AC00000F00F0004432C81BDE8FF870010014087
:103AD0000014014001468888C0F308007047C1F314
:103AE0000802828070474FF41651016000218180E6
:103AF000C18001810C21418100218181704700003A
:103B000010B52DED028B0446B0EE408AB0EE480AA7
:103B100004F12C0000F030FAB4F91C0000EE900A19
:103B2000F8EEE00AB0EE600A04F12C0000F014FA9E
:103B300004F12C0000F09AF904F12C0000F009FACD
:103B4000F0EE408A2178BDEEE80A10EE100A02B2CB
:103B50000248FDF701FFBDEC028B10BD0064004080
:103B600010B52DED028B0446B0EE408AB0EE480A47
:103B700004F12C0000F000FAB4F91C0000EE900AE9
:103B8000F8EEE00AB0EE600A04F12C0000F0E4F96F
:103B900004F12C0000F06AF904F12C0000F0D9F9CE
:103BA000F0EE408A2178BDEEE80A10EE100A02B26B
:103BB0000248FDF7D1FEBDEC028B10BD006800404D
:103BC00038B500240CA00068009000BF10E01DF87C
:103BD00004100A48FFF783FF00BF40210748FFF7A2
:103BE000B3FE0028F9D040210448FFF707FE641C0B
:103BF000032CECDD38BD000041435430007C004014
:103C000000BF704700200AE0064901EB800191EDFA
:103C1000000A054901EB800181ED000A401C1028D3
:103C2000F2DB70471C0C0020DC0B0020F0B50346D3
:103C30000C461888002113E0675C80EA0720002505
:103C40000BE0460000F4004CBCF1000F03D041F241
:103C5000210C86EA0C0630466D1C082DF1D3491C58
:103C60009142E9D31880F0BD10B586B0044601A892
:103C700000F070FA03A800F063FA94ED000A84EDF6
:103C8000060A9DED040A84ED020A9DED050ADFEDAA
:103C9000320A30EE200A84ED000A9DED030ADFEDC2
:103CA0002F0A30EEC00A84ED010ABDF90800404237
:103CB00000EE100AB8EEC00AF2EE040A80EE201AF6
:103CC00084ED031ABDF9060000EE100AB8EEC00A32
:103CD000F2EE040A80EE201A84ED041ABDF9040005
:103CE000404200EE100AB8EEC00AF2EE040A80EE7E
:103CF000201A84ED051A94ED000AD4ED060A30EE80
:103D0000600ADFED170AB4EEE00AF1EE10FA03DB09
:103D1000206A401E20620FE094ED000AD4ED060AEE
:103D200030EE600ADFED0F0AB4EEE00AF1EE10FAB1
:103D300002D8206A401C2062D4ED000A4FF4B4710E
:103D4000206A484300EE100AB8EEC00A30EE800A3E
:103D500084ED070A06B010BD000034430000B443F0
:103D60000000A5430000A5C370B504460D463048C9
:103D7000844229D12868A0F20120062822D2DFE857
:103D800000F003080D12171C29462A4801F098F884
:103D900019E02946284801F093F814E029462748FD
:103DA00001F08EF80FE02946254801F089F80AE075
:103DB0002946244801F084F805E02946224801F00C
:103DC0007FF800E000BF32E0204884422FD128680D
:103DD000A0F20120072828D2DFE800F004090E1322
:103DE000181D220029461A4801F06AF81EE02946EB
:103DF000184801F065F819E02946174801F060F805
:103E000014E02946154801F05BF80FE029461448F4
:103E100001F056F80AE02946124801F051F805E091
:103E20002946114801F04CF800E000BF00BF70BD0A
:103E3000006400409400002028010020BC01002004
:103E400050020020E40200207803002000680040B7
:103E50000C040020A004002034050020C805002028
:103E60005C060020F00600208407002090ED030A85
:103E7000D0ED060A30EE600A80ED070A90ED000AE8
:103E8000D0ED070A20EE200A80ED090A90ED070A1E
:103E9000D0ED080A30EE600AD0ED020A20EE200ACA
:103EA00080ED0A0A90ED0B0AD0ED010A90ED071A99
:103EB00000EE810A80ED0B0A90ED0B0AD0ED040AAA
:103EC000F1EE600AB4EEE00AF1EE10FA06D890EDD9
:103ED000040AB1EE400A80ED0B0A0CE090ED0B0AEB
:103EE000D0ED040AB4EEE00AF1EE10FA03DB90ED37
:103EF000040A80ED0B0A90ED090AD0ED0B0A30EEB2
:103F0000200AD0ED0A0A30EE200A80ED0C0A90ED6E
:103F10000C0AD0ED050AF1EE600AB4EEE00AF1EE0B
:103F200010FA06D890ED050AB1EE400A80ED0C0AB1
:103F30000CE090ED0C0AD0ED050AB4EEE00AF1EECB
:103F400010FA03DB90ED050A80ED0C0A90ED0C0AE7
:103F5000704790ED0C0A704780ED060A704780EDBF
:103F6000040A704780ED050A704780ED000AC0ED35
:103F7000010A80ED021A704780ED030A70470000C5
:103F800070B504460D462878697840EA0120C0F3F0
:103F90000A00A0F5806020806878C010A97840EA07
:103FA0004110C0F30A00A0F580606080A8788011FD
:103FB000E97840EA8100297940EA8120C0F30A00CB
:103FC000A0F58060A08028794010697940EAC1108E
:103FD000C0F30A00A0F58060E080687900118008D5
:103FE00020746879C0F301106074A879E97940EA17
:103FF000012000B2A082287A697A40EA012001B249
:10400000E182A87AE97A40EA012001B22183297B82
:10401000A176697BE176A87BE97B40EA0120E08319
:10402000287C697C40EA0120C0F30A00A0F580608A
:104030006082287C2081687C6081E08B3749088021
:104040000846007800F0010084F822000846007855
:10405000C0F340012320015530480078C0F38001AF
:10406000242001552D480078C0F3C00125200155BA
:104070002A480078C0F3001127200155274800780E
:10408000C0F340112620015524480078C0F3801168
:104090002820015521480078C0F3C011292001557E
:1040A0001E480088C0F300212A2001551B480088C3
:1040B000C0F340212B20015518480088C0F380210F
:1040C0002C20015515480088C0F3C0212D20015532
:1040D00012480088C0F300312E2001550F48008897
:1040E000C0F340312F2001550C480088C0F38031C7
:1040F0003020015509480088C10B312001554FF48B
:1041000080610748FDF713FF08B9012100E0002195
:1041100032200155297B3320015570BD5800002005
:104120000010024000BF054A128802F04002002A37
:10413000F9D0C2B2014B1B1D1A80704700440040E9
:104140000146034B0DCB81E80D00002070470000B5
:10415000680F00200146034802680A608088888052
:10416000002070477000002010B503490348FEF797
:10417000A3FB002010BD000089250008DC0E0020F4
:1041800002461378012B02D109B90023137013786A
:1041900033B9012904D10123137000BF012000E0CD
:1041A00000207047FCF730FDFDF7CAFEFEF798FFD0
:1041B00001F054FA00BFFEE708B5002012E000212C
:1041C00006E001EB8002104B9A5C0DF80120491CBF
:1041D0000429F6D39DED000A0C4901EB800181ED25
:1041E000000A401C1028EADB00200AE0074901EB26
:1041F000800191ED000A064901EB800181ED000A82
:10420000401C1028F2DB08BDDC0A0020DC0B00207B
:104210001C0C00202DE9F04105460E461C4807689D
:104220001C480068001D00F0D6FE50B9194800680F
:1042300090F82C10012088401749096881431648DE
:104240000160681C38B936B112480168091D13486D
:1042500000F0FFFE1AE07C190E4800684460BC4282
:1042600007D20C480168091D0D48006800F0D7FE10
:104270000CE008480168091D0A48006800F0CFFEFC
:1042800009480068844201D207480460BDE8F08113
:1042900098080020840800209C080020F4120020C8
:1042A0008C08002088080020B408002010B50446BF
:1042B00000F0DCFE24480068401C234908602348C5
:1042C000006840B9214804600846006801280DD103
:1042D00000F0EEF90AE01E48006838B91B48006893
:1042E000C06AE16A884201D8184804601948006829
:1042F000401C1849086008460068606494F82C1057
:104300000120884014490968084313490860E16A9C
:1043100001EB8101114A02EB8100211D00F099FEA1
:1043200000F0E8FE0A48006868B108480068C06A02
:10433000E16A884207D24FF0805009490860BFF314
:104340004F8FBFF36F8F10BD9408002084080020AA
:10435000A0080020B00800209C08002024100020A5
:1043600004ED00E010B500F081FE10480068D0B9FF
:104370000F4800F044FE0F4800F041FE0C480E4983
:1043800008600C480D49086000221021052001F04A
:10439000DFFA064908600846006820B108A1034812
:1043A000006800F09BFF00F0A5FE10BDC8080020CB
:1043B000081300201C130020C0080020C40800209F
:1043C000546D72510000000070B523E001F09CF9BB
:1043D0001348006808B9012000E00020054602F0FB
:1043E00021F8BDB900F042FE0D48C068C468201D28
:1043F00000F0F1FD0B480068401E0A4908600A48B9
:104400000068401E0849086000F074FE204600F075
:1044100060F800BF044800680028D7D170BD0000D4
:10442000E0120020940800209008002070B5044697
:104430000D46206C70B1216CE0680844E060616852
:10444000E068884201D32068E0602846226CE16879
:10445000FCF73EF870BD2DE9F04104460F461546C5
:104460004FF00008A66B206C40B9206860BB606804
:1044700001F012FF80460020606025E07DB93946DA
:10448000226CA068FCF724F8216CA0680844A060A6
:10449000D4E90110884217D32068A06014E039469F
:1044A000226CE068FCF714F8216CE068401AE060C8
:1044B0002168E068884203D2216C6068401AE0609D
:1044C000022D01D106B1761E701CA0634046BDE8E6
:1044D000F08110B50446206B00F044FE204600F049
:1044E00041FE10BD0146084A126812680AB901224D
:1044F00000E000220A600A6822B9034A1268D26802
:10450000106800E000207047C008002030B54FF46C
:10451000A043174800F007042CB1C01D20F007008D
:10452000134C041B1B1B0246124C22600024114D2D
:104530006C60D018083820F007000F4C2060002471
:104540000D4D2D686C600C4D2D682C601146441A81
:104550004C60094C24680C60084D4C682C60084D78
:104560004C682C604FF00044064D2C6030BD0000BC
:1045700030130020E0080020E8080020F0080020A8
:10458000EC080020F408002000BFFFF71DFF0648DC
:1045900000680128F9D94FF0805004490860BFF342
:1045A0004F8FBFF36F8FF0E72410002004ED00E081
:1045B0002DE9F04106460D4617469846069C0DB972
:1045C000246000E02760E66325640121204601F0B5
:1045D000DDFA84F850800020A064BDE8F08100007E
:1045E0002DE9F05F82460F4690469B460A9E0C9C42
:1045F0004FEA8801A522206BFBF7AFFFA8F101006D
:10460000216B01EB800929F0070909F0070008B9BF
:10461000012000E0002028B940F22B321BA120A08D
:10462000FBF7B0FE002507E0795D04F13400415549
:10463000785D00B902E06D1C102DF5D300BF00219C
:1046400043200155202E00D31F26E662E664002099
:104650002065201D00F0E0FC04F1180000F0DCFCF7
:104660002461C6F12000A06164620020606584F8C6
:1046700058005A465146484600F002FC20600B980C
:1046800008B10B980460BDE8F09F00002E2E5C4638
:1046900072656552544F535C7461736B732E630083
:1046A0004572726F723A25732C25640D0A00000062
:1046B00010B5002407E004EB84010F4A02EB8100EF
:1046C00000F09DFC641C202CF5D30C4800F097FCF6
:1046D0000B4800F094FC0B4800F091FC0A4800F0F5
:1046E0008EFC0A4800F08BFC044809490860044825
:1046F0000849086010BD000024100020A41200200A
:10470000B8120020CC120020E0120020F412002089
:10471000880800208C08002010B50146164800E0EB
:10472000006803688B42FBD30246436813448B4204
:1047300004D143684C682344436001460A464B68F1
:1047400013440468A34211D10C4C03682468A342AB
:1047500008D04B680468646823444B6003681B6896
:104760000B6005E0054B1B680B6001E003680B6004
:10477000884200D0016010BDE0080020E808002059
:104780002DE9F04104460D4616461F464FF000083D
:1047900065602461B5420CD8F01BA169884202D340
:1047A0004FF0010811E0211D0948006800F037FCB6
:1047B0000BE0BE4204D2BD4202D34FF0010804E038
:1047C000211D0448006800F02AFC4046BDE8F08145
:1047D000C4080020C008002070B5054600F046FC63
:1047E000A86B08B9012400E0002400F083FC2046F7
:1047F00070BD70B5054600F039FCA86BE96B8842C6
:1048000001D1012400E0002400F074FC204670BDBA
:104810002DE9F3410D460098846C00272CB940F631
:10482000CE121AA11EA0FBF7ADFDA06BE16B884272
:1048300001D2012000E0002028B940F6CF1213A1D8
:1048400017A0FBF79FFDA06BE16B88421BD294F988
:1048500045602A4669462046FFF7FDFD0746701C65
:1048600060B9606A08B9012000E0002050B904F185
:10487000240001F07DFD28B1012703E0701C40B247
:1048800084F8450000BF3846BDE8FC812E2E5C460A
:1048900072656552544F535C71756575652E630082
:1048A0004572726F723A25732C25640D0A00000060
:1048B000F8B505460F4613480068C068C468201D57
:1048C00000F089FBE069012818D1A06941192B4645
:1048D0003A462046FFF754FF80B1002003462A469F
:1048E00001460090204601F067FE06462EB94FF4BF
:1048F000027205A10AA0FBF745FD00BF2046616AD0
:104900008847F8BDC00800202E2E5C4672656552AF
:10491000544F535C74696D6572732E630000000020
:104920004572726F723A25732C25640D0A000000DF
:10493000F0B587B070E0039800280CDA04AE2EB909
:1049400040F2E7223AA140A0FBF71CFDD6E9002087
:10495000B168904700BF039800285DDB059C606943
:1049600008B9012000E0002010B9201D00F033FB41
:1049700002A800F0C7F8054603980A284AD2DFE8E3
:1049800000F00905072C2E4506082D2F00BF00BF9B
:1049900000BF00BF0498A269811803462A4620463A
:1049A000FFF7EEFEC0B12046616A8847E069012842
:1049B00012D1002000900498A169421800231946E2
:1049C000204601F0F9FD07462FB940F2213218A127
:1049D0001DA0FBF7D7FC00BF1DE000BF1BE000BF20
:1049E0000498A061A06908B1012000E0002028B966
:1049F0004FF44E720EA114A0FBF7C4FCA06941193C
:104A00002B462A462046FFF7BBFE04E0204600F076
:104A1000A9FB00E000BF00BF00231A4603A90E480F
:104A2000006800F0CFFF002885D107B0F0BD00007E
:104A30002E2E5C4672656552544F535C74696D65E9
:104A400072732E63000000004572726F723A257314
:104A50002C25640D0A000000C8080020F8B50546A2
:104A60000C4600F051FE684600F04CF806460098EF
:104A700020BB44B9B54206D801F0D4FC31462846E3
:104A8000FFF716FF1CE03CB10E480068006808B94B
:104A9000012000E000200446A91B22460A480068C5
:104AA00000F032FC01F0BEFC50B94FF080500749D5
:104AB0000860BFF34F8FBFF36F8F01E001F0B2FCCE
:104AC000F8BD0000C4080020C808002004ED00E084
:104AD0000A490968096809B9012100E0002121B1EA
:104AE0004FF0FF31064A116006E004490968C968C1
:104AF000C868034A416811607047000088080020B8
:104B0000B408002070B5044601F010FB05460748C4
:104B10000068854204D200F00BF80120206001E01B
:104B20000020206001480560284670BDD0080020A4
:104B30002DE9F8432DE021480068C06805681F484A
:104B40000068C068C468201D00F045FA2046616A0C
:104B50008847E06901281CD1A0694619AE4207D9EF
:104B600066602461211D1548006800F058FA10E0C5
:104B7000002003462A4601460090204601F01CFD15
:104B800007462FB940F292320DA113A0FBF7FAFBB2
:104B900000BF0A480068006808B9012000E0002052
:104BA0000028C8D00548D0F800800F4800680349A5
:104BB00008600D48C0F80080BDE8F883C0080020F8
:104BC0002E2E5C4672656552544F535C74696D6558
:104BD00072732E63000000004572726F723A257383
:104BE0002C25640D0A000000C40800200C48006851
:104BF000401C08B9012000E0002028B940F20F1243
:104C000008A113A0FBF7BEFB00BF102080F31188A2
:104C1000BFF34F8FBFF36F8F00BF00BFFEE70000F1
:104C2000D40800202E2E5C4672656552544F535CAA
:104C3000706F727461626C655C525644535C415291
:104C40004D5F434D34465C706F72742E63000000FC
:104C50004572726F723A25732C25640D0A000000AC
:104C600008B500BF6846FFF73DFC044620460099A2
:104C7000FFF7F4FEFFF75CFEF4E770B5044600F0C2
:104C8000F5F994F945501AE0A06C38B1002120469E
:104C9000FFF7BEFD88B100F005FC0EE0606A08B9C0
:104CA000012000E0002038B904F1240001F060FB8D
:104CB00018B100F0F7FB00E003E0681E45B2002DDC
:104CC000E2DC00BFFF2084F8450000F013FA00F09A
:104CD000CDF994F9445010E0206908B9012000E0B2
:104CE000002048B904F1100001F042FB08B100F0C7
:104CF000D9FB681E45B200E001E0002DECDC00BFEE
:104D0000FF2084F8440000F0F5F970BD2DE9F04172
:104D100004464FF0000800F0F7FC3E48006808B970
:104D2000FFF7F4FB3C480068204000285FD1A4B1A5
:104D3000083404F0070080B104F00700C0F1080057
:104D4000044404F0070008B9012000E0002020B965
:104D5000BF2232A13BA0FBF715FB002C47D03D48FA
:104D60000068844243D83C4E3046056801E02E4638
:104D70002D686868A04202D228680028F7D125482B
:104D80000068854233D0306800F108082868306038
:104D90006868001B102813D92F1907F0070008B9FD
:104DA000012000E0002020B9EC221CA125A0FBF787
:104DB000E9FA6868001B78606C603846FFF7ACFC65
:104DC000244968680968081A22490860084600688A
:104DD00022490968884203D21E4800681F490860BA
:104DE0000D4968680968084368600020286001F080
:104DF00019FB08F0070008B9012000E0002028B9DD
:104E00004FF4967205A10FA0FBF7BCFA4046BDE82F
:104E1000F0810000E8080020F40800202E2E5C46F7
:104E200072656552544F535C706F727461626C6549
:104E30005C4D656D4D616E675C686561705F342EB9
:104E4000630000004572726F723A25732C25640D61
:104E50000A000000EC080020E0080020F008002014
:104E60000648006830B10549096801F15000096D34
:104E7000491C016001480068704700008408002058
:104E8000001F4FF080730360001F21F001030360D7
:104E9000001F054B036014380260001F6FF002030F
:104EA0000360203870470000ED4B000800200249E5
:104EB0000860024908707047440000204800002044
:104EC000F0B5002300240D7BCE7A45EA06252DB2ED
:104ED00085808E7B4D7B46EA05252EB2C6800E7CF2
:104EE000CD7B46EA05252EB206814D7C6EB28672D8
:104EF00086888589751B2CB28688868114F57A6F21
:104F000003DA05696D1C056105E0B4F57A6F02DD11
:104F100005696D1E0561B0F9045000EE105AF8EEF7
:104F2000C00A9FED1E1A80EE810ADFED1D0A20EEF9
:104F3000200AD0ED040AF8EEE00A9FED191A00EEFF
:104F4000810A80ED050A90ED050AF3EE030A80EE72
:104F5000201A80ED061AC688B0F92A70BDB26D1C01
:104F60000FFA85FCA0F82AC000F11E0525F817608D
:104F7000458D062D01D100264685002206E000F170
:104F80001E0535F912502B44551CEAB2062AF6DBF1
:104F9000062593FBF5F52EB28683F0BD0000004692
:104FA0000000B4432DE9F04105460E4600240027D9
:104FB00031462846FCF7E3FA074601E0601C84B25C
:104FC00039462846FCF76EFB18B940F6FF7084425C
:104FD000F4DBBDE8F08101460A69D1E9013098604F
:104FE000D1E9010358605068884201D18868506057
:104FF000002008611068401E10601068704700F1C2
:10500000080141604FF0FF31816000F10801C1608B
:10501000016100210160704700210161704710B5F6
:1050200002460B685C1C0CB9106907E002F108002D
:1050300000E04068446824689C42FAD944684C60A7
:105040004C68A160886041600A611468641C146047
:1050500010BD42684A6093688B60936859609160A4
:10506000086103685B1C03607047000010B500BF57
:10507000102080F31188BFF34F8FBFF36F8F00BFF5
:105080000B480068401C0A4908600846006801286F
:105090000DD108480068C0B208B9012000E0002026
:1050A00028B940F2B91204A10EA0FBF76BF910BDAC
:1050B000D408002004ED00E02E2E5C467265655297
:1050C000544F535C706F727461626C655C525644ED
:1050D000535C41524D5F434D34465C706F72742E89
:1050E000630000004572726F723A25732C25640DBF
:1050F0000A00000010B50B48006828B94FF4E072B0
:1051000009A114A0FBF73EF906480068401E0549B6
:1051100008600846006820B9002080F3118800BFAD
:1051200000BF10BDD40800202E2E5C46726565526B
:10513000544F535C706F727461626C655C5256447C
:10514000535C41524D5F434D34465C706F72742E18
:10515000630000004572726F723A25732C25640D4E
:105160000A00000070B506463546002E35D0083DD1
:105170002C461A4960680968084008B1012000E01F
:10518000002028B94FF4A07215A11FA0FBF7FAF870
:10519000206808B9012000E0002028B940F241123F
:1051A0000FA119A0FBF7EEF80C49606809680840E8
:1051B00098B1206888B909496068096888436060C7
:1051C00000F0A2FA144960680968084412490860AE
:1051D0002046FFF7A1FA01F025F970BDF408002080
:1051E0002E2E5C4672656552544F535C706F72741C
:1051F00061626C655C4D656D4D616E675C68656193
:10520000705F342E630000004572726F723A25732E
:105210002C25640D0A000000EC08002006480068F8
:105220004FF47A71B0FBF1F0401E4FF0E02148617D
:1052300007200861704700000000002070B5FBF7F0
:1052400075F80546102D11D305F1E02090F8F043D4
:1052500010480078844201DB012000E0002028B9DA
:105260004FF440720CA117A0FBF78CF819480068A6
:1052700000F4E06018490968884201D8012000E084
:10528000002028B94FF4447203A10EA0FBF77AF86E
:1052900070BD0000D80800202E2E5C467265655255
:1052A000544F535C706F727461626C655C5256440B
:1052B000535C41524D5F434D34465C706F72742EA7
:1052C000630000004572726F723A25732C25640DDD
:1052D0000A0000000CED00E0DC080020024600207F
:1052E0000BE0084B53F8303033B9064B43F830101D
:1052F00003EBC0035A6002E0401C0828F1D300BF52
:1053000070470000E40F00202DE9F04105460E46ED
:1053100017462C46FFF7AAFE94F94400401C10B92A
:10532000002084F8440094F94500401C10B9002086
:1053300084F84500FFF7DEFEA06B28B93A463146F7
:1053400004F1240000F0DEF82046FFF796FCBDE8EB
:10535000F081000070B504460025ACB10F4800682C
:1053600008B9012000E0002028B940F2CF420CA18A
:1053700010A0FBF707F800F0C7F900212046FEF760
:1053800049FF01F04FF805463DB94FF080500D49F7
:105390000860BFF34F8FBFF36F8F70BDBC08002054
:1053A0002E2E5C4672656552544F535C7461736B6C
:1053B000732E63004572726F723A25732C25640D4B
:1053C0000A00000004ED00E02DE9F04704460F4616
:1053D0004FF000092CB940F2794226A12AA0FAF731
:1053E000D1FF0FB1012000E0002028B940F27A423D
:1053F00020A125A0FAF7C6FF2748006808B90120B8
:1054000000E0002028B940F27B421AA11EA0FAF762
:10541000B9FF00F079F9214806682068C5192068AD
:10542000B04207D92068A8420BD9B54209D94FF03C
:10543000010906E02068A84201D8B54201D94FF021
:1054400001092560B9F1000F03D0A81B0021FEF768
:10545000E1FE00F0E7FF8046B8F1000F07D14FF002
:1054600080500F490860BFF34F8FBFF36F8FBDE8C7
:10547000F08700002E2E5C4672656552544F535CD7
:105480007461736B732E63004572726F723A257389
:105490002C25640D0A000000BC080020980800209C
:1054A00004ED00E00120014908607047A8080020D1
:1054B00070B504460D462CB940F6063207A10CA083
:1054C000FAF760FF0E48016818312046FFF7A7FD84
:1054D00001212846FEF79EFE70BD00002E2E5C4680
:1054E00072656552544F535C7461736B732E630025
:1054F0004572726F723A25732C25640D0A00000004
:105500008408002070B505460E4614462DB940F6B5
:10551000313209A10DA0FAF735FF104801681831A2
:105520002846FFF796FD0CB14FF0FF362146304676
:10553000FEF770FE70BD00002E2E5C46726565524F
:10554000544F535C7461736B732E63004572726FBA
:10555000723A25732C25640D0A000000840800208F
:1055600070B505462C46002D4BD02649E06A0968E7
:10557000C96A884245D2A06900F0004028B9214894
:105580000068C06AC0F12000A061E16A01EB8101FE
:105590001D4A02EB81016069884201D1012000E0CF
:1055A000002050B3201DFFF716FD78B9E06A00EB2C
:1055B0008000154951F8200040B994F82C100120C2
:1055C0008840124909688143104801600D4800680D
:1055D000C06AE06294F82C10012088400B490968E9
:1055E00008430A490860E16A01EB8101064A02EBBF
:1055F0008100211DFFF72DFD03E002480068C06A0D
:10560000E06270BD84080020241000209C08002067
:1056100010B504462CB940F6C13205A109A0FAF72D
:10562000B1FE0C48006820600B480068606010BD47
:105630002E2E5C4672656552544F535C7461736BD9
:10564000732E63004572726F723A25732C25640DB8
:105650000A000000AC080020980800201CB51A4879
:1056600000210B468222CDE9001018A1194800F054
:105670001DFD0446012C02D100F064FF0446012CFC
:1056800015D100BF102080F31188BFF34F8FBFF3F7
:105690006F8F00BF4FF0FF300F49086001200F49A6
:1056A000086000200E49086000F08AF80BE0601CDA
:1056B00008B1012000E0002028B940F2847209A15D
:1056C0000DA0FAF75FFE1CBDB808002049444C4508
:1056D0000000000089450008B4080020A008002050
:1056E000980800202E2E5C4672656552544F535C1C
:1056F0007461736B732E63004572726F723A257317
:105700002C25640D0A00000002480068401C014975
:1057100008607047BC08002010B51B48006818B12D
:1057200001201A4908602DE0002018490860184837
:105730000068B0FA80F0C0F11F0404EB8400154942
:1057400051F8200008B1012000E0002028B940F6FF
:10575000F62211A115A0FAF715FE04EB84010D4AFB
:1057600002EB810041684968416000F1080142682C
:105770008A4202D14168496841604168C9680F4A5C
:10578000116000BF10BD0000BC080020A808002068
:105790009C080020241000202E2E5C467265655265
:1057A000544F535C7461736B732E63004572726F58
:1057B000723A25732C25640D0A000000840800202D
:1057C0001CB5404800684049884201D0012000E0F3
:1057D000002028B940F259123CA147A0FAF7D2FDA7
:1057E000384800683849491E884201D0012000E04D
:1057F000002028B94FF4AD7234A13FA0FAF7C2FDE2
:10580000414C204600780190FF2021460870084650
:10581000007800909DF8000000F0F0009DF8001066
:10582000884201D1012000E0002028B940F2731223
:1058300026A131A0FAF7A6FD9DF8000000F01000A7
:105840003249087007203249086009E03048006892
:10585000401E2F4908609DF800004006000E009091
:105860009DF8000000F080008028EFD028480068F4
:105870000002274908600846008800F4E0600860DC
:105880002149019808700F482030006840F47000EA
:105890000C49203108600846006840F070400860FC
:1058A000FFF7BCFC00201B490860FAF707FD1A4807
:1058B000006840F0404018490860FAF7EFFC00200B
:1058C0001CBD000000ED00E071C20F412E2E5C46B1
:1058D00072656552544F535C706F727461626C658F
:1058E0005C525644535C41524D5F434D34465C70AC
:1058F0006F72742E630000004572726F723A2573E6
:105900002C25640D0A00000000E400E0D808002007
:10591000DC080020D408002034EF00E010B500BF00
:10592000102080F31188BFF34F8FBFF36F8F00BF3C
:1059300000F002FC18B14FF080500449086000BF2D
:10594000002080F3118800BF10BD000004ED00E0CE
:105950002DE9F84305460E4690460DB1012000E0C2
:10596000002028B94FF4C4720DA112A0FAF70AFD65
:105970000EB9002701E005FB06F707F15400FFF719
:10598000C5F9044644B104F1540943464A46314638
:1059900028460094FEF70CFE2046BDE8F883000080
:1059A0002E2E5C4672656552544F535C7175657559
:1059B000652E63004572726F723A25732C25640D53
:1059C0000A0000002DE9FF4782B005460E461F463B
:1059D0004FF0000A2C462CB940F2DC4261A166A0CF
:1059E000FAF7D0FC0EB9206C08B9012000E00020C5
:1059F00028B940F2DD425BA15FA0FAF7C3FC00F0DA
:105A000085FB08B9049808B9012000E0002028B9F6
:105A10004FF49C6253A158A0FAF7B4FC00BFFFF703
:105A200025FBD4F83890B9F1000F3DD0D4F80C80A4
:105A300031462046FEF7FAFCDFB9A9F10100A06368
:105A4000206810B9FFF70CFA6060206908B90120DE
:105A500000E0002010BB04F1100000F089FCE8B168
:105A60004FF0805048490860BFF34F8FBFF36F8FEE
:105A700014E0C4F80C80606A08B9012000E000203E
:105A800060B904F1240000F073FC38B14FF080508D
:105A90003D490860BFF34F8FBFF36F8FFFF72AFBBD
:105AA000012006B0BDE8F087049818B9FFF722FB83
:105AB0000020F6E7BAF1000F04D16846FFF7A8FD11
:105AC0004FF0010AFFF716FBFFF71EFEFFF7CEFAB5
:105AD00094F94400401C10B9002084F8440094F963
